{
    "contractName": "Example2",
    "abi": [
        {
            "inputs": [],
            "name": "counter",
            "outputs": [
                {
                    "internalType": "uint256",
                    "name": "",
                    "type": "uint256"
                }
            ],
            "stateMutability": "view",
            "type": "function"
        },
        {
            "inputs": [
                {
                    "internalType": "uint256[]",
                    "name": "arr",
                    "type": "uint256[]"
                }
            ],
            "name": "incrementBy",
            "outputs": [],
            "stateMutability": "nonpayable",
            "type": "function"
        }
    ],
    "bytecode": "608060405234801561001057600080fd5b50610220806100206000396000f3fe608060405234801561001057600080fd5b50600436106100365760003560e01c806361bc221a1461003b5780637ad527b114610056575b600080fd5b61004460005481565b60405190815260200160405180910390f35b6100696100643660046100cb565b61006b565b005b60005b81518110156100c75781818151811061009757634e487b7160e01b600052603260045260246000fd5b60200260200101516000808282546100af919061018b565b909155508190506100bf816101a3565b91505061006e565b5050565b600060208083850312156100dd578182fd5b823567ffffffffffffffff808211156100f4578384fd5b818501915085601f830112610107578384fd5b813581811115610119576101196101d4565b8060051b604051601f19603f8301168101818110858211171561013e5761013e6101d4565b604052828152858101935084860182860187018a101561015c578788fd5b8795505b8386101561017e578035855260019590950194938601938601610160565b5098975050505050505050565b6000821982111561019e5761019e6101be565b500190565b60006000198214156101b7576101b76101be565b5060010190565b634e487b7160e01b600052601160045260246000fd5b634e487b7160e01b600052604160045260246000fdfea2646970667358221220fa503910284d9720eb08797b84ba201e3d16690f489e209bed0c4bf813cfb0b664736f6c63430008040033",
    "sourcePath": "c:/repos/gas-optimization-assignment/contracts/Example2.sol",
    "compiler": {
        "name": "solc",
        "version": "0.8.4+commit.c7e474f2"
    },
    "functionHashes": {
        "counter()": "61bc221a",
        "incrementBy(uint256[])": "7ad527b1"
    },
    "gasEstimates": {
        "creation": {
            "codeDepositCost": "108800",
            "executionCost": "153",
            "totalCost": "108953"
        },
        "external": {
            "counter()": "961",
            "incrementBy(uint256[])": "infinite"
        }
    }
}